S0140000586265652D4D61632D4E65772E73726563F7
S21440000008350020311040002D1040002D104000D3
S2144000102D1040002D1040002D1040000000000024
S2144000200000000000000000000000002D1040000E
S2144000302D104000000000002D1040002D10400004
S2144000402D1040002D1040002D1040002D10400077
S2144000502D1040002D1040002D1040002D10400067
S2144000602D1040002D10400000000000910D400073
S214400070A50D4000B90D40002D1040001D08400061
S21440008000000000000000002D1040002D10400031
S2144000902D1040002D1040002D1040002D10400027
S2144000A02D1040002D1040002D1040002D10400017
S2144000B02D1040002D1040002D1040002D10400007
S2144000C02D1040002D1040002D10400010B5054C5E
S2144000D0237833B9044B13B10448AFF300800123AF
S2144000E0237010BD3804002000000000AC1440000F
S2144000F00C4B43B10C480D4910B5AFF300800C488B
S214400100036823B910BD0A48036833B97047094BE2
S214400110002BF7D0BDE810401847064B002BF5D013
S214400120184700BF00000000AC1440003C0400200C
S214400130AC1440000000000008B5024B1B6898470E
S21440014008BD00BF5804002008B5024B1B68C0B26B
S214400150984708BD5404002070B506460D46134B1C
S2144001609847044608B9204670BD114B1E60114B97
S2144001701D601148114B98471148124B9847012073
S214400180114B98471120114B9847AA20104B98477F
S2144001900020104B984701200F4B984704200F4BE8
S2144001A098472C200E4B9847DDE700BF5902400089
S2144001B05804002054040020390140003505400012
S2144001C049014000410540007D024000C502400014
S2144001D03D034000F9034000010340008503400012
S2144001E0BD03400008B50721014B984708BD00BF36
S2144001F05905400002780E4B1A70427A5A725B7A62
S2144002008BB110B400230A49C2185478CA185470E7
S2144002100133DBB24A7AD2B29A42F5D80022054B75
S2144002201A7010BC70470022024B1A70704700BF0D
S2144002305C0400206604002010B50124044B1C70AA
S214400240044B9847024A1378002BFCD110BD00BFE0
S214400250660400200506400008B50548054B98474B
S2144002604FF41650044B9847003018BF012008BD85
S214400270F50140004D0540007506400010B582B0BF
S21440028004460A4B984760B902A921F8024D02225B
S2144002900748084CA047002207490848A04702B034
S2144002A010BD2046064B98470446EDE7250740001C
S2144002B060144000390240005C1440007C1440004A
S2144002C02907400010B582B08DF807000B38C0B241
S2144002D00F2801D902B010BD01220DF107010448D4
S2144002E0044CA047002204490448A047F2E700BF58
S2144002F06C144000390240005C1440007C144000FE
S21440030010B582B070B901238DF8073001220DF187
S21440031007010648064CA047002206490648A04763
S21440032002B010BD02238DF80730EFE7641440009A
S214400330390240005C1440007C14400010B582B086
S21440034004460A4B984760B902A921F8024D02229A
S2144003500748084CA047002207490848A04702B073
S21440036010BD2046064B98470446EDE7250740005B
S21440037074144000390240005C1440007C14400075
S2144003802907400010B582B08DF80700042801D92F
S21440039002B010BD01220DF107010448044CA047ED
S2144003A0002204490448A047F2E700BF7814400002
S2144003B0390240005C1440007C14400010B582B006
S2144003C08DF807002438C0B22C2801D902B010BDE1
S2144003D001220DF107010448044CA04700220449BD
S2144003E00448A047F2E700BF6814400039024000C6
S2144003F05C1440007C14400010B582B08DF80700B5
S214400400032801D902B010BD01220DF107010448AE
S214400410044CA047002204490448A047F2E700BF26
S21440042070144000390240005C1440007C144000C8
S21440043070B588B03B4CA0477E28FCD1394DA847C4
S214400440000284B2A8470444A4B2A84780380A28C9
S2144004502ED8DFE800F0063B2D2D2D2D2D2D0F2F0D
S21440046063002CB300252F4EB0470135ABB29C42FB
S214400470FAD81DE0053C8DF81D402A4CA047A04701
S214400480A047A0478DF814009DF81D3053B105AD28
S2144004900024244EB04705F8010F01349DF81D3066
S2144004A09C42F7D31F4B98471F4B1B6805A898479D
S2144004B008B070BD1B4CA0470646A0470546A0475F
S2144004C01A4B1B68314628469847F1E7053C8DF89D
S2144004D01040144CA0470002ADF80400A047BDF8F9
S2144004E004300344ADF80430A0478DF81100A0470F
S2144004F09DF810305BB10DF105050024094EB0475C
S21440050005F8010F01349DF810309C42F7D3054B97
S2144005109847074B1B6801A89847C9E7014CA04776
S214400520A047C5E77107400068040020700400201B
S2144005306C040020014B1860704700BF6C0400201C
S214400540014B1860704700BF70040020014B1860D4
S214400550704700BF680400202DE9F04786B0038846
S2144005604FF6FF72934240D00F461A0A8DF80A2083
S214400570DBB28DF80B304FF00008851C067B06F189
S2144005800509B8180130034408EB030036B12B4682
S214400590A91913F8012B10448B42FAD1C043C4B2B8
S2144005A07E20DFF85CA0D047C9F30720D0475FFA2B
S2144005B089F0D0470120D0473846D0479DF80A00FA
S2144005C0D0479DF80B00D0474046D0473EB12F4617
S2144005D03544564617F8010BB047AF42FAD120468D
S2144005E0074B984706B0BDE8F087FF228DF80A20F3
S2144005F08DF80B20002713464FF00108BDE700BFDB
S214400600510740002DE9F84304460E46174602F1CE
S2144006100408007863781844553032B10B461144CC
S21440062013F8012B10448B42FAD1C043C5B27E204A
S214400630DFF83C90C847C8F30720C8475FFA88F001
S214400640C8470820C8474D20C8472078C847607824
S214400650C8473FB134463E444F4614F8010BB847AE
S214400660A642FAD12846024B9847BDE8F88300BF19
S2144006705107400010B582B004462248224B9847A6
S2144006802046224B9847002221492248224B984731
S214400690224CA0477E28FCD1204CA047A047A0472C
S2144006A0A047A047A047A047A04700238DF80730A3
S2144006B0A0479DF80730DBB28DF80730A0479DF87D
S2144006C00730DBB28DF80730A0479DF80730184456
S2144006D0C0B28DF80700A0479DF80730DBB2072B65
S2144006E004D99DF80730002002B010BD9DF80730B1
S2144006F0DBB2032B18BF0020F6D1094B98470120E8
S214400700F2E700BF3104400011084000A107400056
S2144007105C1440008014400005064000710740000D
S214400720310740000120704740BA80B27047000051
S21440073008B501210348044B98474FF40042034B49
S2144007401A6008BD00800240F10F400000E100E062
S21440075008B50146044A536913F0020FFBD002481D
S214400760024B984708BD00BF00800240F90F40008A
S21440077030B583B0074D084C2846A04710F0010F0F
S214400780FAD00DF107010348044B98479DF807003F
S21440079003B030BD00800240F50F40000D10400011
S2144007A030B587B0054600234FF4C0024FF00061D5
S2144007B00F48104CA0470F200F4CA0470023039330
S2144007C0049305930095C02301934FF4006302936E
S2144007D00F20A047094C0A4A69462046094B9847CD
S2144007E02046094B98472046084B984707B030BDEF
S2144007F0000E0E409D0A4000B50E400000800240AC
S214400800000E2707910F4000E50F4000EB0F400019
S214400810014B1860704700BF7404002008B50548B7
S214400820054B984710F0010F00D108BD034B1B68DD
S2144008309847FAE700800240F50F40007404002015
S21440084010B50E480E4B98473E2100200D4B98475A
S2144008500D4CA0470028FCD00C4B98470C4A0D4B3B
S2144008609A620D4CA0470028FCD010200B4B9847AE
S2144008700B4B98470148024B984710BD000E270780
S214400880ED114000310E4000850E4000950E4000B0
S214400890013F132000040E40A50E4000CD0D400041
S2144008A0DD104000F8B53848384B98470B20384C98
S2144008B0A0470C20A0470D20A047364B4FF400021F
S2144008C01A631A61C3F8A020334C04256561C4F846
S2144008D0A0506566C4F8905065656562C4F880505F
S2144008E0226F22F004022267626F22F004026267DF
S2144008F04FF480121A631A61C3F8A0204FF4803276
S21440090022632261C4F8A0204FF480021A631A6161
S214400910C3F8A0204FF000620C212048204B984797
S214400920204F39460320204EB04739462846B04728
S21440093039460C20B04739460D20B04739460E2080
S214400940B0474FF080510920B04718490A20B047B9
S21440095007F1405739465520B04739465F20B047E3
S21440096013494C20B0476566C4F89050656565628B
S214400970C4F88050236F23F004032367636F23F08B
S21440098004036367F8BD00BF50140E4025104000B6
S214400990B50E400000120E40000E0E4000100E40F5
S2144009A0510C400001000008310B400001000010CF
S2144009B0010000284264B1F1C05F39D013D8B1F1CC
S2144009C0006F25D0B1F1805F0AD1036F13430367F0
S2144009D0436F416F0B4023EA020343674260704710
S2144009E00029FBD17047B1F1205F20D009D8B1F182
S2144009F0005FF3D1036F13430367436F13434367AB
S214400A00ECE7B1F1405F12D0B1F1605F0FD0E5E79F
S214400A1010B4016F046FD34321401C461940016750
S214400A20436F416F0B4023404367426010BC7047A2
S214400A30036F016F0B4023EA02030367436F1343C0
S214400A404367CBE7416412F0010F14BF416601666D
S214400A5012F00A0F14BF0162416212F0020F07D172
S214400A6012F0080F18BFC0F884104161016070474B
S214400A70C0F88010F9E710B4019C416444B901669F
S214400A8043B1016542B941630161016010BC7047E2
S214400A904166F5E74165F5E70163F5E770B582B075
S214400AA0054616461C46B1F1005F14D00AD9B1F18E
S214400AB0405F22D0B1F1605F1FD0B1F1205F16D009
S214400AC0002012E0B1F1805F05D0B1F1C05F02D0E6
S214400AD0B1F1006FF4D132462846104B984714F0D7
S214400AE0010F14BF6E662E66012002B070BD1A4616
S214400AF031460B4B98470120F7E704F0010300937B
S214400B00C4F38003B1F1605F14BF00220122314676
S214400B102846044CA0470120E7E700BFB50940003F
S214400B20450A4000770A4000C06C7047806C7047AA
S214400B3070B582B00D46430903F5001303F2077300
S214400B405C0201F0F043B3F1005F53D00AD8B3F132
S214400B50805F2DD0B3F1C05F3BD0B3F1006F15D0AE
S214400B60002023E0B3F1405F55D0B3F1605F52D030
S214400B70B3F1205FF4D100F01F0101262A4606FAA1
S214400B8001F120462F4B984730460FE000F01F00FB
S214400B900126864032464FF0006120462A4B984751
S214400BA015F0010F14BF66662666012002B070BDC0
S214400BB000F01F000126864032464FF08051204606
S214400BC0214B984715F0010F14BF66662666012034
S214400BD0ECE700F01F000126864032464FF0C05139
S214400BE02046194B984715F0010F14BF66662666D7
S214400BF00120DBE700F01F000126864032464FF01A
S214400C0000512046104B984715F0010F14BF6666FA
S214400C1026660120CAE705F0605200F01F01012653
S214400C2005EA06030093C5F38003B2F1605F14BF84
S214400C300022012206FA01F12046044CA047304625
S214400C40B4E700BF450A4000B5094000770A4000B7
S214400C5070B582B005460E46144602F0F043B3F136
S214400C60005F3DD00AD8B3F1805F21D0B3F1C05FBA
S214400C702AD0B3F1006F0ED0002017E0B3F1405FEA
S214400C803AD0B3F1605F37D0B3F1205FF4D1234B55
S214400C90984701200AE00A464FF00061204B9847EB
S214400CA014F0010F14BF6E662E66012002B070BDB0
S214400CB00A464FF080511A4B984714F0010F14BF64
S214400CC06E662E660120F1E70A464FF0C051144B7F
S214400CD0984714F0010F14BF6E662E660120E5E7B4
S214400CE00A464FF000510E4B984714F0010F14BFC0
S214400CF06E662E660120D9E704F0605204F00103C8
S214400D000093C4F38003B2F1605F14BF0022012257
S214400D1031462846034CA0470120C7E7450A400015
S214400D20B5094000770A40002DE9F84381460F4652
S214400D30124B984705464846114B9847054013D0F6
S214400D40104C04F1600603E0B4420DD010345DB19F
S214400D502068B842F8D161682942F5D0E3689847E0
S214400D60636825EA0305EFE7074B1B6823B1074B8B
S214400D701B680BB148469847BDE8F883290B4000EE
S214400D802D0B400078040020F4040020E8040020E6
S214400D9008B50B210148024B984708BD000E0E408F
S214400DA0290D400008B50C210148024B984708BD64
S214400DB000100E40290D400008B50D210148024B99
S214400DC0984708BD00120E40290D4000174A136B85
S214400DD023F0700318431063936E13F0080F0AD184
S214400DE04FF4006311498A6E12F0080F03D1013B9D
S214400DF0F9D1012070470D4A136B23F0030343F0EB
S214400E0002031363936E13F0080F0AD14FF4006386
S214400E1006498A6E12F0080F05D1013BF9D1012030
S214400E207047002070470020704700BF00040E4007
S214400E30C8B9114A136A090289B223F45C1323F035
S214400E40030343F45C1343F001030B431362936EB6
S214400E5013F0010FFBD0084A136A43F09B7343F428
S214400E6080331362704704490B6A044A1A40044BA5
S214400E7013430B62704700BF00040E40FCFFC8FEE1
S214400E8002003701024B986E00F48030704700BF76
S214400E9000040E404FF00052014B9A62704700BF6C
S214400EA000040E40024B986E00F00200704700BFF0
S214400EB000040E4022281ED81F280CD8114B9A69D1
S214400EC001238340934318D0012303FA00F00D4BCF
S214400ED018610020704720380A4BD3F808210123B8
S214400EE0834093430BD0012303FA00F0054BC3F82D
S214400EF00001002070470120704700207047002006
S214400F00704700BF00040E4010B40B01934214D942
S214400F10C9004B0803EBC202B2FBF1F2D3085C1ED9
S214400F204FF6FE718C4201D9012017E0416841F42A
S214400F30002141600CE0012010E0590801EBC2029C
S214400F40B2FBF3F2D3085C1E4FF6FE718C42F2D829
S214400F50120402F4E0221A430262002010BC7047DA
S214400F600A4BC0F8E4300023436043628362882320
S214400F700360242303604FF4807303604FF4002320
S214400F8003604FF400330360704700BF0041535581
S214400F9070B505460C4616460F4B984700220F4B39
S214400FA01A60A4B13246216828460D4B984702463F
S214400FB078B96368A1680B4321690B43E1680B432A
S214400FC006490B6069680B436B60104670BD012292
S214400FD0FBE70122F9E700BF610F4000EC04002068
S214400FE0090F40004023036070471023036070479A
S214400FF08160704740697047436913F0020F1DBF18
S214401000C1F30801C161002001207047436913F015
S214401010010F05D08369C3F308030B6000207047B7
S214401020012070474FF4004343607047FEE70000DE
S21440103008B5214B214A9A4228D9214B1E4A9A424A
S2144010400CD2013B9B1A23F00303043313441B4981
S21440105051F8040B42F8040B9A42F9D100BF194BE1
S214401060194A9A420AD2013B9B1A23F003030433DF
S2144010701344002142F8041B9A42FBD1134B144AF6
S2144010809A60144B9847144B9847FEE70A4B0B4A16
S2144010909A42E3D20A4B0848181A1146043A0244C8
S2144010A00028DBD0C1F1040152F8040943F8040DCE
S2144010B0CA42F9D1D2E700BF00000020AC1440007D
S2144010C038040020080500203804002000ED00E029
S2144010D00000400015134000AD1240003C4B1B6B17
S2144010E003F00303032B0ED8DFE803F0021C383866
S2144010F0384B5B6913F0800F14BF4FF400424FF437
S214401100FA42354B1A60324B1B6B03F07003702B60
S21440111055D02F4B1A6B3049C2F302120B68D3409E
S2144011200B6070472A4B1B6A13F0807F03D02B4A14
S214401130294B1A60E7E72A4A274B1A60244B1B6A5A
S21440114003F07003102B05D0202BDCD1234A224B12
S2144011501A60D8E7234A204B1A60D4E71C4B1B6A18
S21440116013F0807F18D01D4A1B4B1A60184B1B6B20
S21440117003F00303022B164A07BF916A926AD16AAC
S214401180D26A1548C1F30A41036801FB0333D2B261
S214401190B3FBF2F30360B6E7114A0F4B1A600C4BF1
S2144011A01B6A03F07003102B05D0202BDED10B4AB0
S2144011B0094B1A60DAE70B4A074B1A60D6E7064A2D
S2144011C013680949A1FB03135B081360704700BF0F
S2144011D000040E4010140E400C000020001BB70008
S2144011E000093D0000127A00ABAAAAAA1A4B984200
S2144011F014D91A4B984219D9194B98421DD9194BF4
S214401200984221D9184B984294BF4FF00423174B6D
S214401210174A136002F50072136070474FF0806300
S214401220134A136002F5007213607047114B104A60
S214401230136002F50072136070470F4B0C4A136040
S21440124002F50072136070470C4B094A136002F5B2
S21440125000721360704700BFFF2C3101FF596202D5
S214401260FF869303FFB3C404FFE0F50500050004C2
S214401270000A0E40000100040002000400030004BF
S214401280074A137883F00103137023B94FF4000222
S214401290044B5A6370474FF40002024B1A63704780
S2144012A0F004002000120E407047000008B50F4BB7
S2144012B098470F4B98470F490F48104B984700B92F
S2144012C0FEE74FF400020E4B5A630E4C4FF00206F8
S2144012D00D4D26800723A3700123237320460B4B16
S2144012E0984728460A4B9847F3E700BF4108400016
S2144012F0A5084000A9124000811240005901400054
S21440130000120E40F804002013654100E50140003D
S2144013100100002070B50F4E0F4D761BB61018BF5B
S214401320002405D0013455F8043B9847A642F9D12D
S2144013300A4E0B4D761B00F0A7F8B61018BF0024D7
S21440134006D0013455F8043B9847A642F9D170BD03
S21440135070BD00BF94144000941440009C1440009C
S21440136094144000024B13B1024800F005B8704791
S2144013700000000085134000002301461A46184628
S21440138000F01AB838B50A4C0A4D641BA4100AD0AF
S21440139004F18043013B05EB8305013C55F80439D5
S2144013A09847002CF9D1BDE8384000F077B800BF28
S2144013B0AC144000A81440002DE9F047254C2568A1
S2144013C0D5F848410646884692469946C4B3606872
S2144013D01F2817DC431C76B104EB80050122C5F8B4
S2144013E088A0D4F8881182401143022EC4F8881190
S2144013F0C5F808911ED00230636044F82080002073
S214401400BDE8F087144B03B34FF4C870AFF30080C9
S2144014100446D0B1D5F84831002780E88800C5F8A2
S214401420484138460123C4F88871C4F88C71002EB0
S214401430E1D0D1E7D4F88C110A43C4F88C21DAE71E
S21440144005F5A674C5F84841C1E74FF0FF30BDE842
S214401450F08700BF84144000000000000000000039
S2144014604D5900004D4D00004341000043480000E8
S214401470524E000049440000504C000057520000B5
S2144014804244000010000020F8B500BFF8BC08BC7D
S2144014909E46704765134000F1004000F8B500BF17
S2104014A0F8BC08BC9E467047CD004000DB
S2144014ACBFF35F8F0138FBD17047000000093D0049
S2144014BC00000000FC02002064030020CC03002047
S2144014CC00000000000000000000000000000000CB
S2144014DC00000000000000000000000000000000BB
S2144014EC00000000000000000000000000000000AB
S2144014FC000000000000000000000000000000009B
S21440150C000000000000000000000000000000008A
S21440151C000000000000000000000000000000007A
S21440152C000000000000000000000000000000006A
S21440153C000000000000000000000000000000005A
S21440154C000000000000000000000000000000004A
S21440155C0000000000000000010000000000000039
S21440156C0E33CDAB34126DE6ECDE05000B000000FE
S21440157C000000000000000000000000000000001A
S21440158C000000000000000000000000000000000A
S21440159C00000000000000000000000000000000FA
S2144015AC00000000000000000000000000000000EA
S8044010317A
